{
  "contractName": "TournamentScore",
  "abi": [
    {
      "anonymous": false,
      "inputs": [
        {
          "indexed": false,
          "internalType": "string",
          "name": "name",
          "type": "string"
        },
        {
          "indexed": false,
          "internalType": "uint256",
          "name": "score",
          "type": "uint256"
        }
      ],
      "name": "PlayerAdded",
      "type": "event"
    },
    {
      "anonymous": false,
      "inputs": [
        {
          "indexed": false,
          "internalType": "string",
          "name": "winner",
          "type": "string"
        },
        {
          "indexed": false,
          "internalType": "uint256",
          "name": "timestamp",
          "type": "uint256"
        }
      ],
      "name": "TournamentWinner",
      "type": "event"
    },
    {
      "inputs": [
        {
          "internalType": "uint256",
          "name": "",
          "type": "uint256"
        }
      ],
      "name": "players",
      "outputs": [
        {
          "internalType": "string",
          "name": "name",
          "type": "string"
        },
        {
          "internalType": "uint256",
          "name": "score",
          "type": "uint256"
        }
      ],
      "stateMutability": "view",
      "type": "function",
      "constant": true
    },
    {
      "inputs": [
        {
          "internalType": "string",
          "name": "",
          "type": "string"
        }
      ],
      "name": "tournamentWins",
      "outputs": [
        {
          "internalType": "uint256",
          "name": "",
          "type": "uint256"
        }
      ],
      "stateMutability": "view",
      "type": "function",
      "constant": true
    },
    {
      "inputs": [],
      "name": "winner",
      "outputs": [
        {
          "internalType": "string",
          "name": "",
          "type": "string"
        }
      ],
      "stateMutability": "view",
      "type": "function",
      "constant": true
    },
    {
      "inputs": [
        {
          "internalType": "string",
          "name": "_name",
          "type": "string"
        }
      ],
      "name": "addPlayer",
      "outputs": [],
      "stateMutability": "nonpayable",
      "type": "function"
    },
    {
      "inputs": [],
      "name": "getAllPlayerNamesWithWins",
      "outputs": [
        {
          "internalType": "string[]",
          "name": "",
          "type": "string[]"
        }
      ],
      "stateMutability": "view",
      "type": "function",
      "constant": true
    },
    {
      "inputs": [
        {
          "internalType": "string",
          "name": "_winner",
          "type": "string"
        }
      ],
      "name": "enregistrerGagnant",
      "outputs": [],
      "stateMutability": "nonpayable",
      "type": "function"
    },
    {
      "inputs": [
        {
          "internalType": "string",
          "name": "playerName",
          "type": "string"
        }
      ],
      "name": "getTournamentWins",
      "outputs": [
        {
          "internalType": "uint256",
          "name": "",
          "type": "uint256"
        }
      ],
      "stateMutability": "view",
      "type": "function",
      "constant": true
    }
  ],
  "bytecode": "0x608060405234801561001057600080fd5b50610d40806100206000396000f3fe608060405234801561001057600080fd5b506004361061007d5760003560e01c8063dfbf53ae1161005b578063dfbf53ae146100ec578063f4c135891461010a578063f71d96cb1461013a578063f77e8b831461016b5761007d565b806304139b5f146100825780631bf59f85146100a05780639d18be88146100d0575b600080fd5b61008a610187565b60405161009791906109ab565b60405180910390f35b6100ba60048036038101906100b5919061073a565b610260565b6040516100c79190610a8f565b60405180910390f35b6100ea60048036038101906100e5919061073a565b610288565b005b6100f46103b7565b60405161010191906109cd565b60405180910390f35b610124600480360381019061011f919061073a565b610445565b6040516101319190610a8f565b60405180910390f35b610154600480360381019061014f919061077b565b610473565b604051610162929190610a1f565b60405180910390f35b6101856004803603810190610180919061073a565b61052f565b005b60606003805480602002602001604051908101604052809291908181526020016000905b828210156102575783829060005260206000200180546101ca90610bda565b80601f01602080910402602001604051908101604052809291908181526020018280546101f690610bda565b80156102435780601f1061021857610100808354040283529160200191610243565b820191906000526020600020905b81548152906001019060200180831161022657829003601f168201915b5050505050815260200190600101906101ab565b50505050905090565b60006002826040516102729190610994565b9081526020016040518091039020549050919050565b60008151116102cc576040517f08c379a00000000000000000000000000000000000000000000000000000000081526004016102c390610a6f565b60405180910390fd5b80600190805190602001906102e292919061061a565b506002816040516102f39190610994565b9081526020016040518091039020600081548092919061031290610c0c565b919050555060016002826040516103299190610994565b908152602001604051809103902054141561037b5760038190806001815401808255809150506001900390600052602060002001600090919091909150908051906020019061037992919061061a565b505b7f76e55f3955ca7cab312ce37ac913847888d5ee8bdb85e644cb88328da34b9cb281426040516103ac929190610a1f565b60405180910390a150565b600180546103c490610bda565b80601f01602080910402602001604051908101604052809291908181526020018280546103f090610bda565b801561043d5780601f106104125761010080835404028352916020019161043d565b820191906000526020600020905b81548152906001019060200180831161042057829003601f168201915b505050505081565b6002818051602081018201805184825260208301602085012081835280955050505050506000915090505481565b6000818154811061048357600080fd5b90600052602060002090600202016000915090508060000180546104a690610bda565b80601f01602080910402602001604051908101604052809291908181526020018280546104d290610bda565b801561051f5780601f106104f45761010080835404028352916020019161051f565b820191906000526020600020905b81548152906001019060200180831161050257829003601f168201915b5050505050908060010154905082565b6000815111610573576040517f08c379a000000000000000000000000000000000000000000000000000000000815260040161056a90610a4f565b60405180910390fd5b600060405180604001604052808381526020016000815250908060018154018082558091505060019003906000526020600020906002020160009091909190915060008201518160000190805190602001906105d092919061061a565b506020820151816001015550507f04e8c7d1d6842c2dd64514d16ab713b7099bf0327e3c6361714d58f04a32aee681600060405161060f9291906109ef565b60405180910390a150565b82805461062690610bda565b90600052602060002090601f016020900481019282610648576000855561068f565b82601f1061066157805160ff191683800117855561068f565b8280016001018555821561068f579182015b8281111561068e578251825591602001919060010190610673565b5b50905061069c91906106a0565b5090565b5b808211156106b95760008160009055506001016106a1565b5090565b60006106d06106cb84610adb565b610aaa565b9050828152602081018484840111156106e857600080fd5b6106f3848285610b98565b509392505050565b600082601f83011261070c57600080fd5b813561071c8482602086016106bd565b91505092915050565b60008135905061073481610cf3565b92915050565b60006020828403121561074c57600080fd5b600082013567ffffffffffffffff81111561076657600080fd5b610772848285016106fb565b91505092915050565b60006020828403121561078d57600080fd5b600061079b84828501610725565b91505092915050565b60006107b0838361083c565b905092915050565b60006107c382610b1b565b6107cd8185610b3e565b9350836020820285016107df85610b0b565b8060005b8581101561081b57848403895281516107fc85826107a4565b945061080783610b31565b925060208a019950506001810190506107e3565b50829750879550505050505092915050565b61083681610b86565b82525050565b600061084782610b26565b6108518185610b4f565b9350610861818560208601610ba7565b61086a81610ce2565b840191505092915050565b600061088082610b26565b61088a8185610b60565b935061089a818560208601610ba7565b6108a381610ce2565b840191505092915050565b60006108b982610b26565b6108c38185610b71565b93506108d3818560208601610ba7565b80840191505092915050565b60006108ec601c83610b60565b91507f4c65206e6f6d206e6520706575742070617320657472652076696465000000006000830152602082019050919050565b600061092c602783610b60565b91507f4c65206e6f6d206475206761676e616e74206e6520706575742070617320657460008301527f72652076696465000000000000000000000000000000000000000000000000006020830152604082019050919050565b61098e81610b7c565b82525050565b60006109a082846108ae565b915081905092915050565b600060208201905081810360008301526109c581846107b8565b905092915050565b600060208201905081810360008301526109e78184610875565b905092915050565b60006040820190508181036000830152610a098185610875565b9050610a18602083018461082d565b9392505050565b60006040820190508181036000830152610a398185610875565b9050610a486020830184610985565b9392505050565b60006020820190508181036000830152610a68816108df565b9050919050565b60006020820190508181036000830152610a888161091f565b9050919050565b6000602082019050610aa46000830184610985565b92915050565b6000604051905081810181811067ffffffffffffffff82111715610ad157610ad0610cb3565b5b8060405250919050565b600067ffffffffffffffff821115610af657610af5610cb3565b5b601f19601f8301169050602081019050919050565b6000819050602082019050919050565b600081519050919050565b600081519050919050565b6000602082019050919050565b600082825260208201905092915050565b600082825260208201905092915050565b600082825260208201905092915050565b600081905092915050565b6000819050919050565b6000610b9182610b7c565b9050919050565b82818337600083830152505050565b60005b83811015610bc5578082015181840152602081019050610baa565b83811115610bd4576000848401525b50505050565b60006002820490506001821680610bf257607f821691505b60208210811415610c0657610c05610c84565b5b50919050565b6000610c1782610b7c565b91507fffffffffffffffffffffffffffffffffffffffffffffffffffffffffffffffff821415610c4a57610c49610c55565b5b600182019050919050565b7f4e487b7100000000000000000000000000000000000000000000000000000000600052601160045260246000fd5b7f4e487b7100000000000000000000000000000000000000000000000000000000600052602260045260246000fd5b7f4e487b7100000000000000000000000000000000000000000000000000000000600052604160045260246000fd5b6000601f19601f8301169050919050565b610cfc81610b7c565b8114610d0757600080fd5b5056fea264697066735822122022a1ce7099dffb7ff1617bc9ed8c458573eef7155088dc1ea62049ce8ef30bd064736f6c63430008000033",
  "immutableReferences": {},
  "source": "// SPDX-License-Identifier: MIT\npragma solidity ^0.8.0;\n\ncontract TournamentScore {\n    struct Player {\n        string name;\n        uint score;\n    }\n\n    Player[] public players;\n    string public winner;\n    mapping(string => uint) public tournamentWins;\n    string[] private winners; // Un tableau pour stocker les noms des gagnants\n\n    event PlayerAdded(string name, uint score);\n    event TournamentWinner(string winner, uint timestamp); // Ajouter le timestamp pour chaque victoire\n\n    function addPlayer(string memory _name) public {\n        require(bytes(_name).length > 0, \"Le nom ne peut pas etre vide\");\n        players.push(Player(_name, 0));\n        emit PlayerAdded(_name, 0);\n    }\n\n    // Fonction pour rcuprer tous les alias ayant au moins une victoire\n    function getAllPlayerNamesWithWins() public view returns (string[] memory) {\n        return winners;\n    }\n\n    // Fonction pour enregistrer le gagnant et mettre un vnement avec le timestamp\n    function enregistrerGagnant(string memory _winner) public {\n        require(bytes(_winner).length > 0, \"Le nom du gagnant ne peut pas etre vide\");\n        winner = _winner;\n        tournamentWins[_winner]++;\n\n        // Ajout dans winners si c'est un premier gain pour cet alias\n        if (tournamentWins[_winner] == 1) {\n            winners.push(_winner);\n        }\n\n        emit TournamentWinner(_winner, block.timestamp); // Emet l'vnement avec le timestamp\n    }\n\n    // Fonction pour obtenir le nombre de tournois gagns par un joueur\n    function getTournamentWins(string memory playerName) public view returns (uint) {\n        return tournamentWins[playerName];\n    }\n}\n",
  "sourcePath": "/app/contracts/TournamentScore.sol",
  "compiler": {
    "name": "solc",
    "version": "0.8.0+commit.c7dfd78e.Emscripten.clang"
  },
  "schemaVersion": "3.4.16",
  "updatedAt": "2024-11-11T17:28:50.931Z",
  "networkType": "ethereum",
  "devdoc": {
    "kind": "dev",
    "methods": {},
    "version": 1
  },
  "userdoc": {
    "kind": "user",
    "methods": {},
    "version": 1
  }
}